:020000040000FA
:100000000C9463000C948B000C948B000C948B006C
:100010000C948B000C948B000C948B000C948B0034
:100020000C948B000C948B000C948B000C948B0024
:100030000C948B000C948B000C948B000C948B0014
:100040000C94B2030C948B000C9422040C94FC03CB
:100050000C948B000C948B000C948B000C948B00F4
:100060000C948B000C948B000000000023002600F1
:10007000290000000000240027002A0000000008DA
:10008000000201000003040700000000000000005F
:10009000010204081020408001020408102001021F
:1000A0000408102000000000250028002B00040494
:1000B0000404040404040202020202020303030310
:1000C00003035404C60711241FBECFEFD8E0DEBFE0
:1000D000CDBF11E0A0E0B1E0EEECF5E102C005908B
:1000E0000D92A23CB107D9F722E0A2ECB1E001C029
:1000F0001D92A539B207E1F710E0C2E6D0E004C0D6
:100100002197FE010E94A809C136D107C9F70E94B4
:10011000F6040C94DA0A0C940000833081F028F481
:10012000813099F08230A9F008958730A9F08830A5
:10013000C9F08430B1F4809180008F7D03C080913C
:1001400080008F7780938000089584B58F7784BD79
:10015000089584B58F7DFBCF8091B0008F77809319
:10016000B00008958091B0008F7DF9CF1F93CF9399
:10017000DF93282F30E0F901E458FF4F8491F90113
:10018000E057FF4FD491F901E255FF4FC491CC23C2
:10019000A9F0162F81110E948D00EC2FF0E0EE0FD8
:1001A000FF1FEC55FF4FA591B4918FB7F894EC91D8
:1001B000111108C0D095DE23DC938FBFDF91CF9162
:1001C0001F910895DE2BF8CFCF93DF9390E0FC01D1
:1001D000E057FF4F249182559F4FFC018491882363
:1001E000D1F090E0880F991FFC01EE58FF4FA591C8
:1001F000B491FC01EC55FF4FC591D49161110EC033
:100200009FB7F8948C91E22FE0958E238C932881F0
:10021000E223E8839FBFDF91CF9108958FB7F894D1
:10022000EC91E22BEC938FBFF6CF3FB7F89480911F
:10023000DA019091DB01A091DC01B091DD0126B5DE
:10024000A89B05C02F3F19F00196A11DB11D3FBF0E
:10025000BA2FA92F982F8827BC01CD01620F711DDD
:10026000811D911D42E0660F771F881F991F4A95D7
:10027000D1F708950F931F93CF93DF93CDB7DEB7D8
:1002800029970FB6F894DEBF0FBECDBF80918402D0
:1002900090918502892B09F47CC00E941501009180
:1002A0008A0210918B0220918C0230918D0260178E
:1002B00071078207930740F460938A0270938B0260
:1002C00080938C0290938D0200918A0210918B0290
:1002D00020918C0230918D02601B710B820B930B6D
:1002E0006C32714081059105C0F2F89480917F02D3
:1002F000909180029A838983E0918402F091850233
:10030000DF0111968081898790917B02E0918E02B6
:10031000F0918F0280919002992309F445C0908159
:10032000982B98879081809589238F838F818C83E8
:1003300088E08B8358856F8149853B812C81898139
:100340009A81508347FD252F3A952083262F39F037
:10035000441F00C000006083000000C0F2CF38E0FE
:100360004D9160830000019761F7F0938F02E09355
:100370008E0249873B832C839A83898378940E94D9
:10038000150160938A0270938B0280938C02909384
:100390008D0229960FB6F894DEBF0FBECDBFDF9158
:1003A000CF911F910F9108959081982B98879081FC
:1003B000809589238F838F818E8388E08D835885F4
:1003C0006F8149853D812E8189819A81508347FDC6
:1003D000252F00C000C0208300C000C000C000C0A6
:1003E00000C060830000262F3A9541F0441F0000B2
:1003F00000C000C000C000C000C0E8CF38E04D9190
:1004000000C0608300C0019709F7F0938F02E0936A
:100410008E0249873D832E83AFCFAF92BF92CF929A
:10042000DF92EF92FF920F931F93CF93DF936C01B4
:100430007B018B01040F151FEB015E01AE18BF0895
:10044000C017D10759F06991D601ED91FC91019047
:10045000F081E02DC6010995892B79F7C501DF915F
:10046000CF911F910F91FF90EF90DF90CF90BF90B1
:10047000AF900895FC01538D448D252F30E0842FDB
:1004800090E0821B930B541710F0CF9608950197BC
:100490000895FC01918D828D981761F0A28DAE0FA9
:1004A000BF2FB11D5D968C91928D9F5F9F73928F30
:1004B00090E008958FEF9FEF0895FC01918D828D5C
:1004C000981731F0828DE80FF11D858D90E0089529
:1004D0008FEF9FEF0895FC01918D228D892F90E081
:1004E000805C9F4F821B91098F73992708958EED31
:1004F00091E00E946B0221E0892B09F420E0822F19
:10050000089580E090E0892B29F00E947702811104
:100510000C9400000895FC01A48DA80FB92FB11D03
:10052000A35ABF4F2C91848D90E001968F73992729
:10053000848FA689B7892C93A089B1898C91837007
:1005400080648C93938D848D981306C00288F38900
:10055000E02D80818F7D80830895EF92FF920F932D
:100560001F93CF93DF93EC0181E0888F9B8D8C8D5F
:1005700098131AC0E889F989808185FF15C09FB753
:10058000F894EE89FF896083E889F9898081837016
:10059000806480839FBF81E090E0DF91CF911F91C5
:1005A0000F91FF90EF900895F62E0B8D10E00F5FE6
:1005B0001F4F0F731127E02E8C8D8E110CC00FB6BC
:1005C00007FCFACFE889F989808185FFF5CFCE0154
:1005D0000E948B02F1CFEB8DEC0FFD2FF11DE35A42
:1005E000FF4FF0829FB7F8940B8FEA89FB898081D7
:1005F0008062CFCFCF93DF93EC01888D8823B9F051
:10060000AA89BB89E889F9898C9185FD03C080811D
:1006100086FD0DC00FB607FCF7CF8C9185FFF2CF9A
:10062000808185FFEDCFCE010E948B02E9CFDF9163
:10063000CF910895FC0101900020E9F73197AF01B7
:10064000481B590BBC018EED91E00C940D02CF9329
:10065000DF930E941A03EC018AE191E00E941A03E1
:100660008C0F9D1FDF91CF9108958F929F92AF9233
:10067000BF92CF92DF92EF92FF920F931F93CF938F
:10068000DF93CDB7DEB7A1970FB6F894DEBF0FBEEC
:10069000CDBF6C01990FEE08FF08F7FE41C06DE277
:1006A0008EED91E00E94AD028C0122273327A90133
:1006B0002C193D094E095F0919A2CE0181967C01D2
:1006C0009AE0892E912CA12CB12CCA01B901A50167
:1006D00094010E948609605DF70162937F012115F4
:1006E00031054105510589F790E080E0309719F018
:1006F000CF010E941A03800F911FA1960FB6F894A4
:10070000DEBF0FBECDBFDF91CF911F910F91FF9044
:10071000EF90DF90CF90BF90AF909F908F90089513
:10072000A701960119A28E010F5D1F4F8AE0C82E06
:10073000D12CE12CF12CCA01B901A70196010E942C
:100740008609605DF80162938F012115310541052D
:10075000510589F790E080E0309779F2CF010E944F
:100760001A03CBCF1F920F920FB60F9211242F9323
:100770003F938F939F93AF93BF938091D6019091B6
:10078000D701A091D801B091D9013091D50123E0D2
:10079000230F2D3758F50196A11DB11D2093D501CA
:1007A0008093D6019093D701A093D801B093D9013B
:1007B0008091DA019091DB01A091DC01B091DD0123
:1007C0000196A11DB11D8093DA019093DB01A093E6
:1007D000DC01B093DD01BF91AF919F918F913F916B
:1007E0002F910F900FBE0F901F90189526E8230FA2
:1007F0000296A11DB11DD2CF1F920F920FB60F927C
:1008000011242F933F934F935F936F937F938F9315
:100810009F93AF93BF93EF93FF938EED91E00E9470
:100820008B02FF91EF91BF91AF919F918F917F913B
:100830006F915F914F913F912F910F900FBE0F904D
:100840001F9018951F920F920FB60F9211242F939D
:100850008F939F93EF93FF93E091EE01F091EF015F
:100860008081E091F401F091F50182FD1BC090813F
:100870008091F7018F5F8F732091F801821741F00B
:10088000E091F701F0E0E252FE4F958F8093F7017F
:10089000FF91EF919F918F912F910F900FBE0F902D
:1008A0001F9018958081F4CF1092E1011092E00121
:1008B00088EE93E0A0E0B0E08093E2019093E30142
:1008C000A093E401B093E5018CE091E09093DF0107
:1008D0008093DE0185EC90E09093EB018093EA0138
:1008E00084EC90E09093ED018093EC0180EC90E03B
:1008F0009093EF018093EE0181EC90E09093F101F1
:100900008093F00182EC90E09093F3018093F201E8
:1009100086EC90E09093F5018093F4011092F7013A
:100920001092F8011092F9011092FA0110927C02D3
:100930001092830210928A0210928B0210928C0203
:1009400010928D0281E0809389028093860210923A
:10095000870292E09093880280937B0285E190E089
:100960009093800280937F020E94AE09909385024B
:1009700080938402009789F125E1FC0111922A9568
:10098000E9F787E090E090937E0280937D0286E015
:1009900090E0909382028093810280917C02882370
:1009A00041F061E086E00E94E40060E086E00E94A1
:1009B000B600E4EBF0E0E491F0E0EE0FFF1FEC5541
:1009C000FF4F8591949190938F0280938E02E6E978
:1009D000F0E0E491E093900208951092800210926A
:1009E0007F0210927E0210927D02D1CF789484B55E
:1009F000826084BD84B5816084BD85B5826085BD1B
:100A000085B5816085BD80916E00816080936E00A8
:100A1000109281008091810082608093810080919A
:100A2000810081608093810080918000816080934B
:100A300080008091B10084608093B1008091B0000B
:100A400081608093B00080917A00846080937A0006
:100A500080917A00826080937A0080917A00816030
:100A600080937A0080917A00806880937A00109257
:100A7000C100E091EE01F091EF0182E08083E0910E
:100A8000EA01F091EB011082E091EC01F091ED01AF
:100A900080E180831092F601E091F201F091F30180
:100AA00086E08083E091F001F091F1018081806126
:100AB0008083E091F001F091F10180818860808372
:100AC000E091F001F091F101808180688083E091F4
:100AD000F001F091F10180818F7D808361E08DE0F4
:100AE0000E94E40061E08DE00E94B60060E082E0D8
:100AF0000E94E400809181029091820297FD2EC0B5
:100B000061E00E94E40060E0809181020E94B600F2
:100B100081E080937C026091830220918402309175
:100B200085026C3421F16150E1F070E08FEF9BE4BD
:100B30000E947209F90140917F0250918002CF0119
:100B4000821B930B8417950778F44081469FC00160
:100B5000479F900D112490833196EDCF10927C0227
:100B6000DACF70E060E0E6CF8CE4809383024091BE
:100B70007F025091800270E060E080918402909149
:100B800085020E94D30A0E943A018DE191E00E9401
:100B9000270385E391E00E94270350E0252E50E0D3
:100BA000352E6BE4862E912CAA24AA94BA2C05E04B
:100BB00010E0D0E0C0E0EEE7F0E08491E2E9F0E0A0
:100BC000E490E0EBF0E0F490FF2079F081110E94D6
:100BD0008D00EF2DF0E0EE0FFF1FE859FF4FA591BC
:100BE000B4918C91E82209F021960E9415012B0105
:100BF0003C0138E0C32ED12CE12CF12C0E941501D0
:100C00006419750986099709683E73408105910545
:100C1000A8F3F1E0CF1AD108E108F10828EE420E5E
:100C200023E0521E611C711CC114D104E104F104C3
:100C300029F70150110909F0BECF11E01C161D065D
:100C40000CF010E08091C401181307C08091C2011C
:100C50009091C3018C179D0709F187E591E00E94EF
:100C60001A03CE010E94350380E691E00E941A0328
:100C700085E090E00E94350382E691E00E941A032D
:100C800081E090E00E94350388E791E00E9427030D
:100C90001093C401D093C301C093C2011093D40137
:100CA0008FB7F894C090D601D090D701E090D801CA
:100CB000F090D9018FBF9091D4018091CF019923F9
:100CC00009F4FDC04091D0015091D1016091D20151
:100CD0007091D301411551056105710509F0DAC024
:100CE000C092D001D092D101E092D201F092D30112
:100CF000C092CB01D092CC01E092CD01F092CE0116
:100D00008091CF01882309F420C18091C70190917F
:100D1000C801A091C901B091CA01A7019601281B81
:100D2000390B4A0B5B0BDA01C9010A97A105B10522
:100D300008F4A4C0C092C701D092C801E092C901D2
:100D4000F092CA018091000190910101880F991FD2
:100D50002091C5013091C601820F931F8B349105FC
:100D60000CF4D4C09092C6018092C501B0920101EA
:100D7000A09200016091C5017091C601072E000C80
:100D8000880B990B0E94790820E030E04FE753E48C
:100D90000E94D6072B013C0120E030E04FE753E4EE
:100DA0000E9405090E944808C62ED12CF12CE12C86
:100DB0007601DD24CC2420E030E040EA52E4C30197
:100DC000B2010E9405090E944808D62A20E030E0BE
:100DD000A901C301B2010E9405090E944808C62A60
:100DE000A70166277727142FAD2D30E020E08091F2
:100DF0007D0290917E0228173907C0F58091830209
:100E0000BC2DCA2FD12F882371F0849FB001859FFC
:100E1000700D1124D72F8A9FB0011124C72F8C9DEC
:100E2000C0011124B92FE091890280918402909130
:100E3000850260918602E6137CC0B901660F771FB8
:100E4000620F731F860F971FE0918602E80FF92F3C
:100E5000F11DD083E0918702E80FF92FF11DC083C7
:100E600060918802860F911DFC01B0832F5F3F4F78
:100E70002730310509F0BBCF0E943A01211431041B
:100E800009F495CE0E947702882309F490CE0E943F
:100E900000008DCE81112CCFD701C601841B950B8C
:100EA000A60BB70B0597A105B10508F421CF41E0CA
:100EB0004093CF018AE791E00E94270319CF109257
:100EC000D0011092D1011092D2011092D301882347
:100ED00009F416CF8091CB019091CC01A091CD0166
:100EE000B091CE01A7019601281B390B4A0B5B0B71
:100EF000DA01C9010A97A105B10508F401CF1092E2
:100F0000CF0184EA91E00E942703FACE1816190651
:100F10002CF49093C6018093C5012CCF1092C6018A
:100F20001092C50181E090E090930101809300014F
:100F300021CFB901660F771F660F771F860F971FA6
:100F4000E80FF92FF11D10827FCF8091C50190919C
:100F5000C601181619060CF091CF40917F025091EE
:100F6000800270E060E080918402909185020E948E
:100F7000D30A0E943A011092C6011092C50181E085
:100F800090E0909301018093000178CF80918402DA
:100F9000909185020E944A0A80918102909182027A
:100FA00097FD03C060E00C94E40008950E94EA07F6
:100FB0000C94CB080E94C40858F00E94BD0840F071
:100FC00029F45F3F29F00C94B40851110C94FF08E8
:100FD0000C94BA080E94DC0868F39923B1F35523F6
:100FE00091F3951B550BBB27AA276217730784073C
:100FF00038F09F5F5F4F220F331F441FAA1FA9F3D2
:1010000035D00E2E3AF0E0E832D091505040E695BF
:10101000001CCAF72BD0FE2F29D0660F771F881F20
:10102000BB1F261737074807AB07B0E809F0BB0B13
:10103000802DBF01FF2793585F4F3AF09E3F510527
:1010400078F00C94B4080C94FF085F3FE4F3983EEA
:10105000D4F3869577956795B795F7959F5FC9F710
:10106000880F911D9695879597F90895E1E0660F91
:10107000771F881FBB1F621773078407BA0720F00A
:10108000621B730B840BBA0BEE1F88F7E095089573
:101090000E94E40888F09F5798F0B92F9927B7511C
:1010A000B0F0E1F0660F771F881F991F1AF0BA950C
:1010B000C9F714C0B13091F00E94FE08B1E0089564
:1010C0000C94FE08672F782F8827B85F39F0B93F56
:1010D000CCF3869577956795B395D9F73EF49095BF
:1010E0008095709561957F4F8F4F9F4F0895E8943D
:1010F00009C097FB3EF490958095709561957F4F60
:101100008F4F9F4F9923A9F0F92F96E9BB2793950D
:10111000F695879577956795B795F111F8CFFAF41D
:10112000BB0F11F460FF1BC06F5F7F4F8F4F9F4F4E
:1011300016C0882311F096E911C0772321F09EE8AC
:10114000872F762F05C0662371F096E8862F70E012
:1011500060E02AF09A95660F771F881FDAF7880FEC
:101160009695879597F9089597F99F6780E870E0BD
:1011700060E008959FEF80EC089500240A9416160D
:10118000170618060906089500240A941216130675
:10119000140605060895092E0394000C11F4882303
:1011A00052F0BB0F40F4BF2B11F460FF04C06F5F1F
:1011B0007F4F8F4F9F4F089557FD9058440F551FF5
:1011C00059F05F3F71F04795880F97FB991F61F0C9
:1011D0009F3F79F087950895121613061406551F40
:1011E000F2CF4695F1DF08C0161617061806991FAC
:1011F000F1CF86957105610508940895E894BB27A1
:1012000066277727CB0197F908950E9418090C9457
:10121000CB080E94BD0838F00E94C40820F0952336
:1012200011F00C94B4080C94BA0811240C94FF0823
:101230000E94DC0870F3959FC1F3950F50E0551F95
:10124000629FF001729FBB27F00DB11D639FAA271B
:10125000F00DB11DAA1F649F6627B00DA11D661F6A
:10126000829F2227B00DA11D621F739FB00DA11D8B
:10127000621F839FA00D611D221F749F3327A00D45
:10128000611D231F849F600D211D822F762F6A2FE1
:1012900011249F5750409AF0F1F088234AF0EE0F46
:1012A000FF1FBB1F661F771F881F91505040A9F773
:1012B0009E3F510580F00C94B4080C94FF085F3FEA
:1012C000E4F3983ED4F3869577956795B795F795AF
:1012D000E7959F5FC1F7FE2B880F911D9695879527
:1012E00097F90895AA1BBB1B51E107C0AA1FBB1F9A
:1012F000A617B70710F0A61BB70B881F991F5A95A2
:10130000A9F780959095BC01CD010895A1E21A2E10
:10131000AA1BBB1BFD010DC0AA1FBB1FEE1FFF1F99
:10132000A217B307E407F50720F0A21BB30BE40BE9
:10133000F50B661F771F881F991F1A9469F7609530
:101340007095809590959B01AC01BD01CF010895EA
:10135000EE0FFF1F0590F491E02D09940F931F935A
:10136000CF93DF938230910510F482E090E0E0911A
:101370009302F091940230E020E0B0E0A0E03097DA
:1013800099F42115310509F44AC0281B390B243082
:101390003105D8F58A819B816115710589F1FB01C1
:1013A00093838283FE0111C04081518102811381A8
:1013B00048175907E0F04817590799F4109761F05A
:1013C00012960C93129713961C933296CF01DF91CD
:1013D000CF911F910F91089500939302109394025F
:1013E000F4CF2115310551F04217530738F0A90108
:1013F000DB019A01BD01DF01F801C1CFEF01F9CF97
:101400009093940280939302CDCFFE01E20FF31FDD
:10141000819391932250310939832883D7CF20912A
:10142000910230919202232B41F4209104013091DA
:101430000501309392022093910220910201309194
:1014400003012115310541F42DB73EB74091060146
:1014500050910701241B350BE0919102F09192020B
:10146000E217F307A0F42E1B3F0B2817390778F07B
:10147000AC014E5F5F4F2417350748F04E0F5F1FDA
:101480005093920240939102819391939FCFF0E009
:10149000E0E09CCFCF93DF930097E9F0FC01329717
:1014A00013821282A0919302B0919402ED0130E078
:1014B00020E01097A1F420813181820F931F2091A9
:1014C0009102309192022817390709F061C0F09318
:1014D0009202E0939102DF91CF910895EA01CE1735
:1014E000DF07E8F54A815B819E0141155105B1F79F
:1014F000E901FB83EA8349915991C40FD51FEC1789
:10150000FD0761F4808191810296840F951FE901A6
:1015100099838883828193819B838A83F0E0E0E0D2
:1015200012968D919C9113970097B9F52D913C914E
:101530001197CD010296820F931F20919102309155
:1015400092022817390739F6309751F51092940214
:1015500010929302B0939202A0939102BCCFD383D6
:10156000C28340815181840F951FC817D90761F448
:101570004E5F5F4F88819981480F591F5183408387
:101580008A819B81938382832115310509F0B0CF35
:10159000F0939402E09393029ECFFD01DC01C0CF53
:1015A00013821282D7CFDC0101C06D9341505040AD
:1015B000E0F7089510E0C2E6D0E004C0FE010E940A
:1015C000A8092196C336D107C9F7F894FFCF0100C7
:1015D00000009502800000000000AD020D023A02FA
:1015E000FA026B0249025D020D0A0047616C6178E4
:1015F0007920576174636820446F636B2052656182
:101600006479005573696E67205454502D3232331B
:101610002070726F78696D69747920646574656390
:1016200074696F6E0053656E736F723A20002F00FD
:101630002072656164696E677320484947482028B5
:101640006E65656420002900576174636820434F0C
:101650004E4649524D45442061667465722073754B
:10166000737461696E656420646574656374696F21
:101670006E0057617463682052454D4F56454420B3
:10168000616674657220636F6F6C646F776E0000C3
:107E0000112484B714BE81FFF0D085E080938100F7
:107E100082E08093C00088E18093C10086E0809377
:107E2000C20080E18093C4008EE0C9D0259A86E02C
:107E300020E33CEF91E0309385002093840096BBD3
:107E4000B09BFECF1D9AA8958150A9F7CC24DD24C4
:107E500088248394B5E0AB2EA1E19A2EF3E0BF2EE7
:107E6000A2D0813461F49FD0082FAFD0023811F036
:107E7000013811F484E001C083E08DD089C08234E0
:107E800011F484E103C0853419F485E0A6D080C0E4
:107E9000853579F488D0E82EFF2485D0082F10E0AE
:107EA000102F00270E291F29000F111F8ED06801E7
:107EB0006FC0863521F484E090D080E0DECF843638
:107EC00009F040C070D06FD0082F6DD080E0C81688
:107ED00080E7D80618F4F601B7BEE895C0E0D1E017
:107EE00062D089930C17E1F7F0E0CF16F0E7DF06D8
:107EF00018F0F601B7BEE89568D007B600FCFDCFD4
:107F0000A601A0E0B1E02C9130E011968C91119780
:107F100090E0982F8827822B932B1296FA010C0160
:107F200087BEE89511244E5F5F4FF1E0A038BF0790
:107F300051F7F601A7BEE89507B600FCFDCF97BE46
:107F4000E89526C08437B1F42ED02DD0F82E2BD052
:107F50003CD0F601EF2C8F010F5F1F4F84911BD097
:107F6000EA94F801C1F70894C11CD11CFA94CF0C13
:107F7000D11C0EC0853739F428D08EE10CD085E9AC
:107F80000AD08FE07ACF813511F488E018D01DD067
:107F900080E101D065CF982F8091C00085FFFCCF94
:107FA0009093C60008958091C00087FFFCCF809118
:107FB000C00084FD01C0A8958091C6000895E0E648
:107FC000F0E098E1908380830895EDDF803219F02E
:107FD00088E0F5DFFFCF84E1DECF1F93182FE3DFCA
:107FE0001150E9F7F2DF1F91089580E0E8DFEE27F6
:047FF000FF270994CA
:027FFE00040479
:00000001FF
